:020000040800F2
:10000000A83300209D0100081F1500083D140008BA
:100010001D15000807030008AD16000800000000C9
:100020000000000000000000000000002315000890
:100030001D04000800000000211500082515000817
:10004000B7010008B7010008B7010008B7010008B0
:10005000B7010008B7010008B7010008B7010008A0
:10006000B7010008B7010008B7010008B701000890
:10007000B7010008B7010008B7010008B701000880
:100080006D030008B7010008B7010008B7010008B8
:10009000B7010008B7010008B7010008B701000860
:1000A000B7010008B7010008B7010008B701000850
:1000B000B7010008B7010008B7010008B701000840
:1000C000B7010008B7010008B7010008B701000830
:1000D000B7010008B7010008B7010008B701000820
:1000E000B7010008B7010008B7010008B701000810
:1000F000B7010008B7010008B7010008B701000800
:10010000B7010008B7010008B7010008B7010008EF
:10011000B7010008B7010008C9150008B7010008B9
:10012000B7010008B7010008B7010008B7010008CF
:10013000B7010008B7010008B7010008B7010008BF
:10014000B7010008B7010008B7010008B7010008AF
:10015000B7010008B7010008B7010008B70100089F
:10016000B7010008B7010008B7010008B70100088F
:10017000B7010008B7010008B7010008000000003F
:10018000B7010008B7010008DFF80CD000F07AF8DA
:1001900000480047ED160008A833002006488047B5
:1001A00006480047FEE7FEE7FEE7FEE7FEE7FEE75C
:1001B000FEE7FEE7FEE7FEE7AD150008890100084F
:1001C0002DE9F05F0546002092469B46884606468C
:1001D000814640241BE0284641464746224600F01F
:1001E00041F853465A46C01A914110D31146184659
:1001F000224600F028F82D1A67EB01084F462246E8
:100200000120002100F01FF817EB00094E41201ECD
:10021000A4F10104DFDC484631462A464346BDE8E6
:10022000F09FD2B201E000F8012B491EFBD27047CB
:100230000022F6E710B513460A4604461946FFF7B2
:10024000F0FF204610BD202A04DB203A00FA02F11C
:10025000002070479140C2F1200320FA03F31943B4
:1002600090407047202A04DB203A21FA02F0002156
:10027000704721FA02F3D040C2F1200291400843B6
:1002800019467047064C074D06E0E06840F0010350
:1002900094E8070098471034AC42F6D3FFF778FF94
:1002A000441700086417000870B58D1810F8014B4A
:1002B00014F0030201D110F8012B231106D110F81C
:1002C000013B03E010F8016B01F8016B521EF9D1FC
:1002D000ABB110F8012B04F00C048A1A0C2C03D0DB
:1002E000A2EB84129B1C08E010F8014BA2EB042245
:1002F000F8E712F8014B01F8014B5B1EF9D5A94252
:10030000D4D3002070BDFEE710B5846B204600F00A
:10031000ACF80120207110BD10B5846B204600F0B0
:100320007FF80120207110BD10B5846B206940F06A
:1003300004002061204600F09BF80120207110BDD0
:1003400010B5846B206940F004002061204600F065
:100350006AF80120207110BD10B5806B00F086F89E
:1003600010BD10B5806B00F05CF810BD014800F0C6
:100370009BB90000042F002001681823CAB2103A6C
:10038000B2FBF3F2054B6FF30901032A9B5CC365D3
:1003900000D9091D81650846704700002C17000828
:1003A00010B5014600208B698A6A4FF0C07453B1C2
:1003B000B3F5005F15D072B1012A0CD0022A0AD021
:1003C000032A09D104E01AB1012A06D0022A03D176
:1003D000C96AC90100D5012010BDC96AA142FAD07D
:1003E00010BD002AF7D0012AF2D0022AF3D0032A46
:1003F000F3D010BD30B50468256825F4802525604C
:10040000046863608368402B036803D099600068C8
:10041000C26030BD9A600068C16030BD70477047EF
:10042000704770477047704770B54379012B1AD0F9
:10043000012646710223037105682C6840F6FE739D
:1004400093409C43D1E900310B43934023432B60FD
:1004500001680B68C0249440A3430B60067100211F
:100460004171084670BD022070BD704770477047EB
:10047000704770B504460068416B4FF0040589046D
:100480000ED52571216941F001012161E902416325
:100490002068016821F4805101602046FFF7E7FFE2
:1004A0002068416B890011D52571216941F0020155
:1004B00021614FF0005141632068016821F08051B3
:1004C00001602046BDE87040FFF7ACBF70BD70B55D
:1004D000040003D02079002510B105E0012070BD93
:1004E0006571204600F008F8022020712561012086
:1004F0002071002070BD000070B586B00546142143
:100500006846FFF795FE2349286888423FD1224874
:100510000026016841F000510160006800F00050C1
:1005200005901D481038016841F001010160006824
:10053000694600F001000590102000900320CDE9ED
:100540000106164800F022FA164C154820604FF0BC
:10055000606060604020C4E9020600012061400044
:1005600060618000A0614011C4E907062046666210
:1005700000F06AF908B1FFF752FFAC6000221146A3
:100580003620A56300F04CFB362000F03BFB06B0A4
:1005900070BD00000074004040380240000002407E
:1005A00088600240042F00202DE9F04104460D46EA
:1005B0001746617900220698012920D0012666712C
:1005C00002212171F5B1D4F80CC03149CCF83C10AE
:1005D000D4F80CC02F49CCF84010D4F80CC02E49E8
:1005E000CCF84C102168D1F800C04CF0805CC1F808
:1005F00000C090B3042834D0082837D134E002205A
:10060000BDE8F081D4F808C02449CCF83C10D4F8F7
:1006100008C02349CCF84010D4F808C02149CCF8D0
:100620004C102168D1F800C04CF4805CC1F800C0C7
:1006300020B1042805D0082808D105E02268083236
:1006400004E022680C3201E0226810322068016860
:1006500041F400510160A0680EE0FFE72268143207
:1006600004E02268183201E022681C322068016828
:1006700041F000510160E068394600F04FF9206810
:100680000168AE403143016000206071B8E70000AE
:100690001903000863030008410300080903000868
:1006A00059030008290300082DE9F84304464FF0D8
:1006B0000009CDF8009063484FF41651A56D00680D
:1006C000B0FBF1F72E6894F85C10082000FA01F1F5
:1006D00031420FD021680A6852070BD50A6822F010
:1006E00004020A6094F85C108840A860606D40F0D5
:1006F0000100606594F85C104FF0010808FA01F001
:10070000304208D021684969090604D5A860606DA7
:1007100040F00200606594F85C100420884030428C
:1007200008D021680968890704D5A860606D40F089
:100730000400606594F85C1010208840304218D0A6
:1007400021680968090714D5A86020680168490371
:1007500004D50068000308D5A16C07E00168C9054D
:1007600003D4016821F008010160216C09B1204621
:10077000884794F85C1020208840304231D02168AE
:100780000968C9062DD5A86094F8350005282068A9
:10079000016806D0490347D5006800031DD4616C89
:1007A0001CE021F0160101602068416921F0800100
:1007B0004161206C08B9A06C20B12068016821F06B
:1007C0000801016094F85C103F208840A86084F81C
:1007D000349084F83580216D1FE0E16B09B120462B
:1007E0008847606D00282BD0606DC00714D00520AD
:1007F00084F835002068016821F00101016000984B
:10080000401C0090B84203D820680068C007F6D1A9
:1008100084F8349084F83580E16C002910D001B060
:100820002046BDE8F04308470168C905D5D40168F2
:1008300021F01001016084F8349084F83580CCE711
:10084000BDE8F883EC2E00202DE9F041044600F0CD
:1008500079F906465CB1002584F83450022084F80A
:1008600035002068016821F0010101600DE00120E0
:10087000BDE8F08100F066F9801B052805D920202D
:100880006065032084F83500F2E720680068C0073F
:10089000F0D12268116820480140D4E901031843CF
:1008A000D4E903363343184363691843A3691843F3
:1008B000E3691843236A18430843616A042903D192
:1008C000D4E90B1319430843106020684069666A35
:1008D00020F0070130460E43012704280CD1A06AFE
:1008E0000643E06A40B12046FFF75AFD20B14020A0
:1008F000606584F83570BAE7206846612046FFF7E6
:100900003BFD94F85C203F2191408160656584F84F
:1009100035700020ACE700003F8010F02DE9F04179
:100920000446866D90F83400002501280DD0012082
:1009300084F8340094F835700020012F07D084F833
:10094000340002252846BDE8F0810220FBE702279B
:1009500084F8357060652046FFF74CFD94F85C1014
:100960003F208840B0602068016841F016010160B6
:10097000206C20B12068016841F008010160206806
:10098000016841F001010160DCE700002DE9F84F4A
:1009900000224FF0010803254FF00F0E0B6808FAF4
:1009A00002F42340A3426ED14E68012E05D0022EE0
:1009B00003D0112E01D0122E12D186684FEA420CBC
:1009C00005FA0CF7BE43CF6807FA0CF73743876088
:1009D0004668A6430C79C4F3001494403443446041
:1009E000C668570005FA07FC8C6826EA0C06BC406E
:1009F0003443C4604C68022C01D0122C13D1D408AB
:100A000000EB8404A346D4F8209054074FEAD46A3C
:100A10000EFA0AF629EA06090E6906FA0AF646EA05
:100A20000906CBF8206006680C7926EA0C0604F06B
:100A30000304BC40344304604C68E40065D5364C84
:100A4000266846F480462660246822F0030604F4F3
:100A500080440094314C3444A446D4F808489607A6
:100A6000370F0EFA07F6B4432D4EB04201D10026DF
:100A700024E02C4EB04201D101261FE02A4EB042A4
:100A800002D102261AE040E0284EB04201D10326EE
:100A900014E0274EB04201D104260FE0254EB042AB
:100AA00001D105260AE0244EB04201D1062605E018
:100AB000224EB04201D1072600E00826BE40264360
:100AC000CCF808681E4E34684F689C43FF0300D57D
:100AD0001C4334601A4C241D26684F689E43BF0394
:100AE00000D51E432660164E083634684F689C4376
:100AF000FF0200D51C433460114E0C3634684F6839
:100B00009C43BF0200D51C433460521C102AFFF4E2
:100B100045AFBDE8F88F0000443802400030014086
:100B2000000002400004024000080240000C0240A5
:100B3000001002400014024000180240001C024055
:100B4000003C01400148806870470000E02E002012
:100B5000024881680278114481607047E02E0020CD
:100B60000B4810B5016841F400710160016841F45F
:100B700080610160016841F480710160032000F030
:100B80006FF8002000F006F800F024F8002010BDF7
:100B9000003C024070B50D4D04464FF47A71287840
:100BA000B1FBF0F00A490968B1FBF0F000F0E4FA9B
:100BB00048B9102C07D200222146501E00F030F810
:100BC00000206C6070BD012070BD0000E02E002090
:100BD000EC2E00200A4808B5016841F4804101600C
:100BE000006800F4804000900548001F016841F053
:100BF00080510160006800F08050009008BD000046
:100C000044380240002809DB00F01F020121914016
:100C10004009800000F1E020C0F80011704700009A
:100C2000F0B40E4B1B680C46C3F30223C3F1070557
:100C3000042D00D90425191D072901D2002300E045
:100C4000DB1E012606FA05F1491E214099409E400F
:100C5000761E16403143F0BC00F029BD0CED00E0DB
:100C6000064900F0070208684FF6FF03184040EA03
:100C70000220034A10430860704700000CED00E0BA
:100C80000000FA052DE9F0470E46050065D0DFF8B3
:100C90001481D8F80000F7B200F00F00B04207D27C
:100CA00088F80070D8F8000000F00F00B04254D16E
:100CB00028683D4C810712D5400703D5206840F4D1
:100CC000E05020602878000703D5206840F4604099
:100CD00020602068A96820F0F00008432060287890
:100CE000C0072DD0304968680839012812D0022881
:100CF00013D0032811D00968890700292DDA21684B
:100D000021F0030101432160FFF71CFF814641F2FE
:100D1000883A0EE009688903EFE709688901ECE782
:100D2000FFF710FFA0EB0901514502D90320BDE8F0
:100D3000F0872068696800F00C00B0EB810FEFD1FC
:100D4000D8F80010404601F00F01B14207D90770F2
:100D5000006800F00F00B04201D00120E7E72878DA
:100D6000400705D52068E96820F4E050084320607A
:100D70002878000706D52068296920F4604040EAF9
:100D8000C100206000F018F82168084AC1F303117F
:100D9000515CC8400649086006480068FFF7FAFE43
:100DA0000020C4E7003C0240083802403417000825
:100DB000EC2E0020E42E0020154810B5006810F03D
:100DC0000C02144813D01449042A0FD0082A0ED15B
:100DD0000F4C241F2268236802F03F025B0207D5F4
:100DE0002068C0F38810A0FB010106E0084610BD92
:100DF0002168C1F38811A1FB00010023FFF7E0F98E
:100E00002168C1F30141491C4900B0FBF1F010BD5C
:100E1000083802400024F40040787D012DE9F84FA5
:100E200004006ED02078DFF83C93C007A9F10405D8
:100E30004AD009F104000168C1F38101012908D0F9
:100E40000068C0F3810002280AD1D9F800004002EE
:100E500006D52868800337D560680028E1D033E0E4
:100E60006068B0F5803F10D0B0F5A02F286810D092
:100E700020F480302860286820F480202860606892
:100E8000A8B1FFF75FFE06460DE0286840F4803009
:100E9000F4E740F480202860F7E700BFFFF752FE38
:100EA000801B642873D828688003F7D50CE0FFF70F
:100EB00049FE064605E000BFFFF744FE801B64289C
:100EC000F0D828688003F7D42078DFF89C82800768
:100ED0004FF0000A3ED5A348001D016811F00C0F29
:100EE00008D00068C0F3810002280BD1D9F80000B7
:100EF000400207D42868800716D5E068012800D191
:100F000012E02BE1E068B8B10120C8F80000FFF75B
:100F100019FE064605E000BFFFF714FE801B0228FD
:100F2000C0D828688007F7D52868216920F0F80024
:100F300040EAC10028600DE0C8F800A0FFF702FEFB
:100F4000064604E0FFF7FEFD801B02281FD8286834
:100F50008007F7D42078000722D5824E8348616944
:100F6000703671B101210160FFF7ECFD074604E026
:100F7000FFF7E8FDC01B022809D830688007F7D5C5
:100F80000EE0C0F800A0FFF7DDFD074605E082E0B7
:100F9000FFF7D8FDC01B02287DD830688007F7D442
:100FA0002078400768D5DFF8BCB100270BF13C0B77
:100FB000DBF80000C0000BD4DBF8001041F08051DA
:100FC000CBF80010DBF80000012700F08050009003
:100FD000674E3068C00510D4306840F480703060CF
:100FE000FFF7B0FD009005E0FFF7ACFD0099401A57
:100FF000022850D83068C005F6D55A4EA0686C3625
:1010000001280FD00528306810D020F00100306092
:10101000306820F004003060A068B8B1FFF792FD9E
:1010200000900FE0306840F00100F4E740F0040069
:101030003060F7E7FFF786FD0099411A41F28830EA
:10104000814266D830688007F4D50EE0FFF77AFD5C
:10105000009007E0FFF776FD0099411A41F28830D1
:10106000814256D830688007F4D42FB1DBF80010E5
:1010700021F08051CBF80010A069C8B33949091D8F
:101080000968C1F3810102294AD00228504607D0DD
:10109000C8F8600000E03CE0FFF754FD04463BE088
:1010A0004746C8F86000FFF74DFD064605E000BF63
:1010B000FFF748FD801B02282BD828688001F7D451
:1010C000D4E907010843A16A2A4A490802EB014111
:1010D000626A41EA8211084394F82C1040EA0161E7
:1010E000C9F8001001203866FFF72CFD044606E021
:1010F00036E000BFFFF726FD001B022809D828684C
:101100008001F7D52CE000BFFFF71CFD001B022873
:1011100002D90320BDE8F88F28688001F4D41FE0CD
:101120000128F7D0D9F80000E26900F4800191426B
:1011300014D1226A00F03F0191420FD147F6C071ED
:10114000626A0140914209D1A26A00F440319142A1
:1011500004D1E16A00F07060884201D00120D9E733
:101160000020D7E70438024000004742800E474283
:10117000007000400000FFFF10B5401EB0F1807FFE
:1011800001D3012010BD4FF0E02460610F216017F2
:1011900000F08DFA0020A06107202061002010BD22
:1011A0007047704770B590F83C20012A32D0012476
:1011B00080F83C40022280F83D2003685A689D6810
:1011C00022F070060A6832435A60134B02689A4252
:1011D00014D0B2F1804F11D0104B9A420ED0104B68
:1011E0009A420BD00F4B9A4208D00F4B9A4205D02F
:1011F0000E4B9A4202D00E4B9A4204D1496825F018
:1012000080031943916080F83D40002180F83C1034
:10121000084670BD022070BD00000140000400407F
:1012200000080040000C0040000401400040014064
:101230000018004010B5040003D094F83D0010B130
:1012400007E0012010BD002084F83C00204600F09B
:101250000DF8022084F83D00211D206800F0C2F93D
:10126000012084F83D00002010BD000008B5006892
:101270000B49884212D10B48016841F0100101600E
:101280000068002200F01000009011463620FFF7A1
:10129000C7FCBDE808403620FFF7B4BC08BD00001D
:1012A0000010004040380240022180F83D100168E3
:1012B0008A6802F00702062A03D00A6842F0010297
:1012C0000A60012180F83D1000207047704770B51A
:1012D0000446006801694FF00005C943890715D429
:1012E000C168C943890711D4E91E01610120207733
:1012F000206880698007204602D0FFF7E7FF04E0FE
:1013000000F098F8204600F096F8257720680169EB
:10131000C943490717D4C168C943490713D46FF0BB
:1013200004010161022020772068806910F4407F69
:10133000204602D0FFF7CAFF04E000F07BF8204609
:1013400000F079F8257720680169C943090716D4A8
:10135000C168C943090712D46FF008010161042074
:1013600020772068C0698007204602D0FFF7AEFFD3
:1013700004E000F05FF8204600F05DF82577206873
:101380000169C943C90617D4C168C943C90613D442
:101390006FF010010161082020772068C06910F407
:1013A000407F204602D0FFF791FF04E000F042F8B2
:1013B000204600F040F8257720680169C943C90735
:1013C00008D1C168C943C90704D1891E01612046FB
:1013D00000F032F820680169C943090609D4C168E0
:1013E000C943090605D46FF0800101612046FFF76B
:1013F000D7FE20680169C943490609D4C168C943B9
:10140000490605D46FF040010161204600F015F84F
:1014100020680169C94389060BD4C168C94389069C
:1014200007D46FF0200101612046BDE87040FFF74E
:10143000B8BE70BD7047704770477047FEE7000048
:101440001CB500240C4900940A4801940860084621
:10145000FFF73DF808B1FEF7E2FF0420CDE90004F4
:10146000002269460448FEF7DFFF002801D0FEF79E
:10147000D6FF1CBD00740040F02E0020094808B5BE
:10148000016841F4001101600068002200F40010BE
:10149000009011461020FFF7C3FBBDE80840102064
:1014A000FFF7B0BB30380240094808B5016841F089
:1014B00001010160016801F001010091016841F042
:1014C00002010160006800F00200009008BD000009
:1014D000303802401CB500240F4800940D49019497
:1014E00001602A21C0E901140121C16080218161CC
:1014F000FFF7A0FE08B1FEF792FF2020CDE900041F
:1015000069460548FFF74EFE002801D0FEF787FF29
:101510001CBD000000100040642F0020FEE7704753
:1015200070477047FFF714BB30B593B03021684661
:10153000FEF77EFE14210CA8FEF77AFE194800255E
:10154000016841F080510160006800F08050119006
:101550001548016841F4804101600068022400F4EC
:101560008040119001200390102004900094069474
:101570000820CDE90750A820CDE9090404200B90EC
:101580006846FFF74BFC0CA90F2081E831004FF4AF
:10159000A0500F90E002109005210CA8FFF772FBFD
:1015A00013B030BD4038024000700040054801686B
:1015B00041F47001016003494FF000608039086018
:1015C0007047000088ED00E010B50448FEF751FFB9
:1015D000BDE810400248FFF77ABE0000F02E002060
:1015E000642F0020F0B50268254C264D264E274F6B
:1015F000274B4FF0804CA04209D0604507D0A8424D
:1016000005D0B04203D0B84201D0984204D122F0B4
:10161000700E4A6842EA0E02A0421BD0604519D003
:10162000A84217D0B04215D0B84213D0984211D07A
:10163000184DA8420ED0184DA8420BD0174DA84205
:1016400008D0174DA84205D0164DA84202D0164D1D
:10165000A84203D122F44075CA682A434D6922F09A
:1016600080022A4302608A68C2620A688262A042DB
:1016700001D0984201D10969016301214161F0BDA6
:10168000000001400004004000080040000C004041
:101690000004014000400140004401400048014076
:1016A00000180040001C004000200040FEE7090731
:1016B000090E002804DB00F1E02080F800147047D8
:1016C00000F00F0000F1E02080F8141D704702E0E8
:1016D00008C8121F08C1002AFAD1704770470020BD
:1016E00001E001C1121F002AFBD1704708B5FFF7C6
:1016F00037FAFFF719FFFFF7D7FEFFF7BFFEFFF737
:101700009FFEFFF7E7FE0648FFF7CEFD00200146EB
:10171000009041F26F73034A0348FEF745FFFEE76E
:10172000642F002000000020F02E0020000610167C
:101730000006101600000000000000000102030473
:10174000060708096417000800000020F02E0000BA
:10175000A802000864360008F02E0020B80400003B
:10176000DE16000800FF000008020804080608084A
:10177000080A080C080E08100812081408160818A1
:10178000081A081C081E0820082208240826082811
:10179000082B082D082F0831083308350837083979
:1017A000083B083D083F08410843084508470849E9
:1017B000084B084D084F0851085308560858085A56
:1017C000085C085E08600862086408660868086AC1
:1017D000086C086E08700872087408760878087A31
:1017E000087C087E08810883088508870889088B9B
:1017F000088D088F08910893089508970899089B09
:10180000089D089F08A108A308A508A708A908AC77
:1018100008AE08B008B208B408B608B808BA08BCE0
:1018200008BE08C008C208C408C608C808CA08CC50
:1018300008CE08D008D208D408D708D908DB08DDBC
:1018400008DF08E108E308E508E708E908EB08ED28
:1018500008EF08F108F308F508F708F908FB08FD98
:10186000080009020900FF000409060908090A091D
:101870000C090E09100912091409160918091A0988
:101880001C091E09200922092409260928092B09F7
:101890002D092F09310933093509370939093B0960
:1018A0003D093F09410943094509470949094B09D0
:1018B0004D094F0951095309560958095A095C093C
:1018C0005E09600962096409660968096A096C09A8
:1018D0006E09700972097409760978097A097C0918
:1018E0007E09810983098509870989098B098D0981
:1018F0008F09910993099509970999099B099D09F0
:101900009F09A109A309A509A709A909AC09AE095D
:10191000B009B209B409B609B809BA09BC09BE09C7
:10192000C009C209C409C609C809CA09CC09CE0937
:10193000D009D209D409D709D909DB09DD09DF09A2
:10194000E109E309E509E709E909EB09ED09EF090F
:10195000F109F309F509F709F909FB09FD09000A7D
:10196000020A040A060A00FF00080A0A0A0C0A0E04
:101970000A100A120A140A160A180A1A0A1C0A1E5F
:101980000A200A220A240A260A280A2B0A2D0A2FCC
:101990000A310A330A350A370A390A3B0A3D0A3F37
:1019A0000A410A430A450A470A490A4B0A4D0A4FA7
:1019B0000A510A530A560A580A5A0A5C0A5E0A6011
:1019C0000A620A640A660A680A6A0A6C0A6E0A707F
:1019D0000A720A740A760A780A7A0A7C0A7E0A81EE
:1019E0000A830A850A870A890A8B0A8D0A8F0A9157
:1019F0000A930A950A970A990A9B0A9D0A9F0AA1C7
:101A00000AA30AA50AA70AA90AAC0AAE0AB00AB232
:101A10000AB40AB60AB80ABA0ABC0ABE0AC00AC29E
:101A20000AC40AC60AC80ACA0ACC0ACE0AD00AD20E
:101A30000AD40AD70AD90ADB0ADD0ADF0AE10AE377
:101A40000AE50AE70AE90AEB0AED0AEF0AF10AF3E6
:101A50000AF50AF70AF90AFB0AFD0A000B020B0451
:101A60000B060B080B0A0B00FF000C0B0E0B100BE8
:101A7000120B140B160B180B1A0B1C0B1E0B200B46
:101A8000220B240B260B280B2B0B2D0B2F0B310BB2
:101A9000330B350B370B390B3B0B3D0B3F0B410B1E
:101AA000430B450B470B490B4B0B4D0B4F0B510B8E
:101AB000530B560B580B5A0B5C0B5E0B600B620BF7
:101AC000640B660B680B6A0B6C0B6E0B700B720B66
:101AD000740B760B780B7A0B7C0B7E0B810B830BD4
:101AE000850B870B890B8B0B8D0B8F0B910B930B3E
:101AF000950B970B990B9B0B9D0B9F0BA10BA30BAE
:101B0000A50BA70BA90BAC0BAE0BB00BB20BB40B18
:101B1000B60BB80BBA0BBC0BBE0BC00BC20BC40B85
:101B2000C60BC80BCA0BCC0BCE0BD00BD20BD40BF5
:101B3000D70BD90BDB0BDD0BDF0BE10BE30BE50B5D
:101B4000E70BE90BEB0BED0BEF0BF10BF30BF50BCD
:101B5000F70BF90BFB0BFD0B000C020C040C060C35
:101B6000080C0A0C0C0C0E0C00FF00100C120C14CC
:101B70000C160C180C1A0C1C0C1E0C200C220C241D
:101B80000C260C280C2B0C2D0C2F0C310C330C3587
:101B90000C370C390C3B0C3D0C3F0C410C430C45F5
:101BA0000C470C490C4B0C4D0C4F0C510C530C5664
:101BB0000C580C5A0C5C0C5E0C600C620C640C66CD
:101BC0000C680C6A0C6C0C6E0C700C720C740C763D
:101BD0000C780C7A0C7C0C7E0C810C830C850C87A9
:101BE0000C890C8B0C8D0C8F0C910C930C950C9715
:101BF0000C990C9B0C9D0C9F0CA10CA30CA50CA785
:101C00000CA90CAC0CAE0CB00CB20CB40CB60CB8ED
:101C10000CBA0CBC0CBE0CC00CC20CC40CC60CC85C
:101C20000CCA0CCC0CCE0CD00CD20CD40CD70CD9CA
:101C30000CDB0CDD0CDF0CE10CE30CE50CE70CE934
:101C40000CEB0CED0CEF0CF10CF30CF50CF70CF9A4
:101C50000CFB0CFD0C000D020D040D060D080D0A09
:101C60000D0C0D0E0D100D120D00FF00140D160DB4
:101C7000180D1A0D1C0D1E0D200D220D240D260D04
:101C8000280D2B0D2D0D2F0D310D330D350D370D6D
:101C9000390D3B0D3D0D3F0D410D430D450D470DDC
:101CA000490D4B0D4D0D4F0D510D530D560D580D4A
:101CB0005A0D5C0D5E0D600D620D640D660D680DB4
:101CC0006A0D6C0D6E0D700D720D740D760D780D24
:101CD0007A0D7C0D7E0D810D830D850D870D890D8F
:101CE0008B0D8D0D8F0D910D930D950D970D990DFC
:101CF0009B0D9D0D9F0DA10DA30DA50DA70DA90D6C
:101D0000AC0DAE0DB00DB20DB40DB60DB80DBA0DD3
:101D1000BC0DBE0DC00DC20DC40DC60DC80DCA0D43
:101D2000CC0DCE0DD00DD20DD40DD70DD90DDB0DB0
:101D3000DD0DDF0DE10DE30DE50DE70DE90DEB0D1B
:101D4000ED0DEF0DF10DF30DF50DF70DF90DFB0D8B
:101D5000FD0D000E020E040E060E080E0A0E0C0EED
:101D60000E0E100E120E140E160E00FF00180E1A94
:101D70000E1C0E1E0E200E220E240E260E280E2BDA
:101D80000E2D0E2F0E310E330E350E370E390E3B43
:101D90000E3D0E3F0E410E430E450E470E490E4BB3
:101DA0000E4D0E4F0E510E530E560E580E5A0E5C1F
:101DB0000E5E0E600E620E640E660E680E6A0E6C8B
:101DC0000E6E0E700E720E740E760E780E7A0E7CFB
:101DD0000E7E0E810E830E850E870E890E8B0E8D64
:101DE0000E8F0E910E930E950E970E990E9B0E9DD3
:101DF0000E9F0EA10EA30EA50EA70EA90EAC0EAE41
:101E00000EB00EB20EB40EB60EB80EBA0EBC0EBEAA
:101E10000EC00EC20EC40EC60EC80ECA0ECC0ECE1A
:101E20000ED00ED20ED40ED70ED90EDB0EDD0EDF85
:101E30000EE10EE30EE50EE70EE90EEB0EED0EEFF2
:101E40000EF10EF30EF50EF70EF90EFB0EFD0E0061
:101E50000F020F040F060F080F0A0F0C0F0E0F10C2
:101E60000F120F140F160F180F1A0F10E01C0F1E71
:101E70000F200F220F240F260F280F2B0F2D0F2FAF
:101E80000F310F330F350F370F390F3B0F3D0F3F1A
:101E90000F410F430F450F470F490F4B0F4D0F4F8A
:101EA0000F510F530F560F580F5A0F5C0F5E0F60F4
:101EB0000F620F640F660F680F6A0F6C0F6E0F7062
:101EC0000F720F740F760F780F7A0F7C0F7E0F81D1
:101ED0000F830F850F870F890F8B0F8D0F8F0F913A
:101EE0000F930F950F970F990F9B0F9D0F9F0FA1AA
:101EF0000FA30FA50FA70FA90FAC0FAE0FB00FB216
:101F00000FB40FB60FB80FBA0FBC0FBE0FC00FC281
:101F10000FC40FC60FC80FCA0FCC0FCE0FD00FD2F1
:101F20000FD40FD70FD90FDB0FDD0FDF0FE10FE35A
:101F30000FE50FE70FE90FEB0FED0FEF0FF10FF3C9
:101F40000FF50FF70FF90FFB0FFD0FFF0412FB0C3E
:101F500012F71412F31C12EF2412EB2C12E73412B6
:101F6000E33C12DF4412DB4C12D75412D25C12CE87
:101F70006412CA6C12C67412C27C12BE8412BA8C6D
:101F800012B69412B29C12AEA412A9AC12A5B4124D
:101F9000A1BC129DC41299CC1295D41291DC128D61
:101FA000E41289EC1285F41281FC167C0416780C7C
:101FB00016741416701C166C2416682C16643416CD
:101FC000603C165C4416584C165354164F5C164B26
:101FD0006416476C164374163F7C163B8416378C88
:101FE000163394162F9C162BA41626AC1622B41664
:101FF0001EBC161AC41616CC1612D4160EDC160AFF
:10200000E41606EC1406020F000FFDFC1AF9041A80
:10201000F50C1AF1141AED1C1AE9241AE52C1AE130
:10202000341ADD3C1AD9441AD44C1AD0541ACC5C58
:102030001AC8641AC46C1AC0741ABC7C1AB8841A00
:10204000B48C1AB0941AAC9C1AA7A41AA3AC1A9F09
:10205000B41A9BBC1A97C41A93CC1A8FD41A8BDC6F
:102060001A87E41A83EC1A7EF41A7AFC1E760403AB
:102070001E720C031E6E14031E6A1C031E662403CC
:102080001E622C031E5E34031E5A3C031E5644037C
:102090001E514C031E4D54031E495C031E45640330
:1020A0001E416C031E3D74031E397C031E358403E0
:1020B0001E318C031E2D94031E289C031E24A40392
:1020C0001E20AC031E1CB4031E18BC031E14C40344
:1020D0001E10CC031E0CD4031E08DC031E04E403F4
:1020E0001C04000EFDF0031EF9F8031EF500041E8B
:1020F000F108041EED10041EE918041EE520041E5C
:10210000E128041EDD30041ED938041ED440041E0C
:10211000D048041ECC50041EC858041EC460041EBF
:10212000C068041EBC70041EB878041EB480041E6F
:10213000B088041EAC90041EA798041EA3A0041E21
:102140009FA8041E9BB0041E97B8041E93C0041ED3
:102150008FC8041E8BD0041E87D8041E83E0041E83
:102160007EE8041E7AF0041E76F8041E7200051E36
:102170006E08051E6A10051E6618051E6220051EE3
:102180005E28051E5A30051E5638051E5140051E94
:102190004D48051E4950051E4558051E4160051E47
:1021A0003D68051E3970051E3578051E3180051EF7
:1021B0002D88051E2890051E2498051E20A0051EAA
:1021C0001CA8051E18B0051E14B8051E10C0051E5B
:1021D0000CC8051E08D0051E04D8051C04000DFD02
:1021E000E4051EF9EC051EF5F4051EF1FC051EEDD7
:1021F00004061EE90C061EE514061EE11C061EDD83
:1022000024061ED92C061ED434061ED03C061ECC35
:1022100044061EC84C061EC454061EC05C061EBCE6
:1022200064061EB86C061EB474061EB07C061EAC96
:1022300084061EA78C061EA394061E9F9C061E9B4A
:10224000A4061E97AC061E93B4061E8FBC061E8BFA
:10225000C4061E87CC061E83D4061E7EDC061E7AAC
:10226000E4061E76EC061E72F4061E6EFC061E6A5E
:1022700004071E660C071E6214071E5E1C071E5A0A
:1022800024071E562C071E5134071E4D3C071E49BD
:1022900044071E454C071E4154071E3D5C071E396E
:1022A00064071E356C071E3174071E2D7C071E281F
:1022B00084071E248C071E2094071E1C9C071E18D2
:1022C000A4071E14AC071E10B4071E0CBC071E0882
:1022D000C4071E04CC071C04000CFDD8071EF9E03F
:1022E000071EF5E8071EF1F0071EEDF8071EE900CE
:1022F000081EE508081EE110081EDD18081ED9207A
:10230000081ED428081ED030081ECC38081EC8402D
:10231000081EC448081EC050081EBC58081EB860DD
:10232000081EB468081EB070081EAC78081EA7808E
:10233000081EA388081E9F90081E9B98081E97A041
:10234000081E93A8081E8FB0081E8BB8081E87C0F1
:10235000081E83C8081E7ED0081E7AD8081E76E0A4
:10236000081E72E8081E6EF0081E6AF8081E660055
:10237000091E6208091E5E10091E5A18091E562001
:10238000091E5128091E4D30091E4938091E4540B5
:10239000091E4148091E3D50091E3958091E356065
:1023A000091E3168091E2D70091E2878091E248017
:1023B000091E2088091E1C90091E1898091E14A0C9
:1023C000091E10A8091E0CB0091E08B8091E04C079
:1023D000091C04000BFDCC091EF9D4091EF5DC090B
:1023E0001EF1E4091EEDEC091EE9F4091EE5FC09E5
:1023F0001EE1040A1EDD0C0A1ED9140A1ED41C0A92
:102400001ED0240A1ECC2C0A1EC8340A1EC43C0A44
:102410001EC0440A1EBC4C0A1EB8540A1EB45C0AF4
:102420001EB0640A1EAC6C0A1EA7740A1EA37C0AA6
:102430001E9F840A1E9B8C0A1E97940A1E939C0A58
:102440001E8FA40A1E8BAC0A1E87B40A1E83BC0A08
:102450001E7EC40A1E7ACC0A1E76D40A1E72DC0ABC
:102460001E6EE40A1E6AEC0A1E66F40A1E62FC0A6C
:102470001E5E040B1E5A0C0B1E56140B1E511C0B19
:102480001E4D240B1E492C0B1E45340B1E413C0BCC
:102490001E3D440B1E394C0B1E35540B1E315C0B7C
:1024A0001E2D640B1E286C0B1E24740B1E207C0B2F
:1024B0001E1C840B1E188C0B1E14940B1E109C0BE0
:1024C0001E0CA40B1E08AC0B1E04B40B1C04000A4B
:1024D000FDC00B1EF9C80B1EF5D00B1EF1D80B1E4C
:1024E000EDE00B1EE9E80B1EE5F00B1EE1F80B1EFC
:1024F000DD000C1ED9080C1ED4100C1ED0180C1EAA
:10250000CC200C1EC8280C1EC4300C1EC0380C1E5B
:10251000BC400C1EB8480C1EB4500C1EB0580C1E0B
:10252000AC600C1EA7680C1EA3700C1E9F780C1EBE
:102530009B800C1E97880C1E93900C1E8F980C1E6F
:102540008BA00C1E87A80C1E83B00C1E7EB80C1E20
:102550007AC00C1E76C80C1E72D00C1E6ED80C1ED3
:102560006AE00C1E66E80C1E62F00C1E5EF80C1E83
:102570005A000D1E56080D1E51100D1E4D180D1E31
:1025800049200D1E45280D1E41300D1E3D380D1EE3
:1025900039400D1E35480D1E31500D1E2D580D1E93
:1025A00028600D1E24680D1E20700D1E1C780D1E47
:1025B00018800D1E14880D1E10900D1E0C980D1EF7
:1025C00008A00D1E04A80D1C040009FDB40D1EF981
:1025D000BC0D1EF5C40D1EF1CC0D1EEDD40D1EE973
:1025E000DC0D1EE5E40D1EE1EC0D1EDDF40D1ED923
:1025F000FC0D1ED4040E1ED00C0E1ECC140E1EC8D4
:102600001C0E1EC4240E1EC02C0E1EBC340E1EB882
:102610003C0E1EB4440E1EB04C0E1EAC540E1EA733
:102620005C0E1EA3640E1E9F6C0E1E9B740E1E97E6
:102630007C0E1E93840E1E8F8C0E1E8B940E1E8796
:102640009C0E1E83A40E1E7EAC0E1E7AB40E1E7649
:10265000BC0E1E72C40E1E6ECC0E1E6AD40E1E66FA
:10266000DC0E1E62E40E1E5EEC0E1E5AF40E1E56AA
:10267000FC0E1E51040F1E4D0C0F1E49140F1E455B
:102680001C0F1E41240F1E3D2C0F1E39340F1E350A
:102690003C0F1E31440F1E2D4C0F1E28540F1E24BC
:1026A0005C0F1E20640F1E1C6C0F1E18740F1E146E
:1026B0007C0F1E10840F1E0C8C0F1E08940F1E041E
:1026C0009C0F02FF000201FF0201FF0201FF020155
:1026D000FF0201FF0201FF0201C80200FF00FD0727
:1026E000FB07F907F707F507F307F107EF07ED0712
:1026F000EB07E907E707E507E307E107DF07DD0782
:10270000DB07D907D707D407D207D007CE07CC07F6
:10271000CA07C807C607C407C207C007BE07BC0769
:10272000BA07B807B607B407B207B007AE07AC07D9
:10273000A907A707A507A307A1079F079D079B0751
:10274000990797079507930791078F078D078B07C1
:10275000890787078507830781077E077C077A0734
:10276000780776077407720770076E076C076A07A9
:10277000680766076407620760075E075C075A0719
:1027800058075607530751074F074D074B0749078F
:1027900047074507430741073F073D073B07390701
:1027A00037073507330731072F072D072B07280772
:1027B00026072407220720071E071C071A071807E9
:1027C00016071407120710070E070C070A07080759
:1027D0000607040702070007FD06FB0600FF00F9D5
:1027E00006F706F506F306F106EF06ED06EB06E939
:1027F00006E706E506E306E106DF06DD06DB06D9A9
:1028000006D706D406D206D006CE06CC06CA06C81F
:1028100006C606C406C206C006BE06BC06BA06B890
:1028200006B606B406B206B006AE06AC06A906A702
:1028300006A506A306A1069F069D069B0699069778
:10284000069506930691068F068D068B06890687E8
:10285000068506830681067E067C067A067806765D
:10286000067406720670066E066C066A06680666D0
:10287000066406620660065E065C065A0658065640
:1028800006530651064F064D064B064906470645B8
:1028900006430641063F063D063B06390637063528
:1028A00006330631062F062D062B0628062606249B
:1028B00006220620061E061C061A06180616061410
:1028C00006120610060E060C060A06080606060480
:1028D0000602060006FD05FB05F905F70500FF00E9
:1028E000F505F305F105EF05ED05EB05E905E70550
:1028F000E505E305E105DF05DD05DB05D905D705C0
:10290000D405D205D005CE05CC05CA05C805C60537
:10291000C405C205C005BE05BC05BA05B805B605A7
:10292000B405B205B005AE05AC05A905A705A5051A
:10293000A305A1059F059D059B059905970595058F
:10294000930591058F058D058B05890587058505FF
:10295000830581057E057C057A0578057605740575
:10296000720570056E056C056A05680566056405E7
:10297000620560055E055C055A0558055605530558
:1029800051054F054D054B054905470545054305CF
:1029900041053F053D053B0539053705350533053F
:1029A00031052F052D052B052805260524052205B3
:1029B00020051E051C051A05180516051405120527
:1029C00010050E050C050A05080506050405020597
:1029D0000005FD04FB04F904F704F504F30400FF0B
:1029E00000F104EF04ED04EB04E904E704E504E37B
:1029F00004E104DF04DD04DB04D904D704D404D2E9
:102A000004D004CE04CC04CA04C804C604C404C25E
:102A100004C004BE04BC04BA04B804B604B404B2CE
:102A200004B004AE04AC04A904A704A504A304A143
:102A3000049F049D049B04990497049504930491B6
:102A4000048F048D048B0489048704850483048126
:102A5000047E047C047A047804760474047204709E
:102A6000046E046C046A046804660464046204600E
:102A7000045E045C045A0458045604530451044F81
:102A8000044D044B04490447044504430441043FF6
:102A9000043D043B04390437043504330431042F66
:102AA000042D042B04280426042404220420041EDC
:102AB000041C041A04180416041404120410040E4E
:102AC000040C040A0408040604040402040004FDBF
:102AD00003FB03F903F703F503F303F103EF03002B
:102AE000FF00ED03EB03E903E703E503E303E10381
:102AF000DF03DD03DB03D903D703D403D203D00301
:102B0000CE03CC03CA03C803C603C403C203C00375
:102B1000BE03BC03BA03B803B603B403B203B003E5
:102B2000AE03AC03A903A703A503A303A1039F035B
:102B30009D039B03990397039503930391038F03CD
:102B40008D038B03890387038503830381037E033E
:102B50007C037A03780376037403720370036E03B5
:102B60006C036A03680366036403620360035E0325
:102B70005C035A0358035603530351034F034D0399
:102B80004B03490347034503430341033F033D030D
:102B90003B03390337033503330331032F032D037D
:102BA0002B03280326032403220320031E031C03F4
:102BB0001A03180316031403120310030E030C0365
:102BC0000A0308030603040302030003FD02FB02D9
:102BD000F902F702F502F302F102EF02ED02EB0255
:102BE00000FF00E902E702E502E302E102DF02DDA5
:102BF00002DB02D902D702D402D202D002CE02CC2A
:102C000002CA02C802C602C402C202C002BE02BC9C
:102C100002BA02B802B602B402B202B002AE02AC0C
:102C200002A902A702A502A302A1029F029D029B84
:102C300002990297029502930291028F028D028BF4
:102C400002890287028502830281027E027C027A67
:102C500002780276027402720270026E026C026ADC
:102C600002680266026402620260025E025C025A4C
:102C70000258025602530251024F024D024B0249C2
:102C80000247024502430241023F023D023B023934
:102C90000237023502330231022F022D022B0228A5
:102CA0000226022402220220021E021C021A02181C
:102CB0000216021402120210020E020C020A02088C
:102CC000020602040202020002FD01FB01F901F703
:102CD00001F501F301F101EF01ED01EB01E901E77C
:102CE0000100FF00E501E301E101DF01DD01DB019E
:102CF000D901D701D401D201D001CE01CC01CA0142
:102D0000C801C601C401C201C001BE01BC01BA01B3
:102D1000B801B601B401B201B001AE01AC01A90124
:102D2000A701A501A301A1019F019D019B0199019B
:102D300097019501930191018F018D018B0189010B
:102D400087018501830181017E017C017A0178017F
:102D500076017401720170016E016C016A016801F3
:102D600066016401620160015E015C015A01580163
:102D70005601530151014F014D014B0149014701DA
:102D80004501430141013F013D013B01390137014B
:102D90003501330131012F012D012B0128012601BD
:102DA0002401220120011E011C011A011801160133
:102DB0001401120110010E010C010A0108010601A3
:102DC000040102010001FD00FB00F900F700F5001D
:102DD000F300F100EF00ED00EB00E900E700E50093
:102DE000E3001CD4E100DF00DD00DB00D900D700E8
:102DF000D400D200D000CE00CC00CA00C800C6006B
:102E0000C400C200C000BE00BC00BA00B800B600DA
:102E1000B400B200B000AE00AC00A900A700A5004D
:102E2000A300A1009F009D009B00990097009500C2
:102E3000930091008F008D008B0089008700850032
:102E4000830081007E007C007A00780076007400A8
:102E5000720070006E006C006A006800660064001A
:102E6000620060005E005C005A005800560053008B
:102E700051004F004D004B00490047004500430002
:102E800041003F003D003B00390037003500330072
:102E900031002F002D002B002800260024002200E6
:102EA00020001E001C001A0018001600140012005A
:102EB00010000E000C000A4508100806000400026D
:102EC00000000412040C120814120C1C121024121C
:102ED000142C121834121C3C12204412244C1228B8
:102EE00054122D5C12316412356C123974123D7C0F
:102EF00012418412458C124994124D9C1251A41215
:102F000056AC125AB4125EBC1262C41266CC126A7B
:102F1000D4126EDC1272E41276EC127AF4127EFC99
:102F200016830416870C168B14168F1C1693241602
:102F3000972C169B34169F3C16A34416A74C16AC30
:102F40005416B05C16B46416B86C16BC7416C07C0B
:102F500016C48416C88C16CC9416D09C16D4A4160D
:102F6000D9AC16DDB416E1BC16E5C416E9CC16EDF5
:102F7000D416F1DC16F5E416F9EC1404FD0000F8A3
:102F80001A04001A08081A0C101A10181A14201A19
:102F900018281A1C301A20381A24401A28481A2DCA
:102FA000501A31581A35601A39681A3D701A41782A
:102FB0001A45801A49881A4D901A51981A56A01A23
:102FC0005AA81A5EB01A62B81A66C01A6AC81A6E8F
:102FD000D01A72D81A76E01A7AE81A7EF01A83F8B4
:102FE0001E8700031E8B08031E8F10031E931803F9
:102FF0001E9720031E9B28031E9F30031EA3380329
:103000001EA740031EAC48031EB050031EB4580355
:103010001EB860031EBC68031EC070031EC4780384
:103020001EC880031ECC88031ED090031ED49803B4
:103030001ED9A0031EDDA8031EE1B0031EE5B803E0
:103040001EE9C0031EEDC8031EF1D0031EF5D80310
:103050001EF9E0031C04FD0100EC031E04F4031E32
:1030600008FC031E0C04041E100C041E1414041E81
:10307000181C041E1C24041E202C041E2434041EB0
:10308000283C041E2D44041E314C041E3554041EDD
:10309000395C041E3D64041E416C041E4574041E0C
:1030A000497C041E4D84041E518C041E5694041E3B
:1030B0005A9C041E5EA4041E62AC041E66B4041E68
:1030C0006ABC041E6EC4041E72CC041E76D4041E98
:1030D0007ADC041E7EE4041E83EC041E87F4041EC6
:1030E0008BFC041E8F04051E930C051E9714051EF1
:1030F0009B1C051E9F24051EA32C051EA734051E20
:10310000AC3C051EB044051EB44C051EB854051E4B
:10311000BC5C051EC064051EC46C051EC874051E7B
:10312000CC7C051ED084051ED48C051ED994051EAA
:10313000DD9C051EE1A4051EE5AC051EE9B4051ED7
:10314000EDBC051EF1C4051EF5CC051EF9D4051C09
:1031500004FD0200E0051E04E8051E08F0051E0C33
:10316000F8051E1000061E1408061E1810061E1C68
:1031700018061E2020061E2428061E2830061E2D96
:1031800038061E3140061E3548061E3950061E3DC3
:1031900058061E4160061E4568061E4970061E4DF3
:1031A00078061E5180061E5688061E5A90061E5E20
:1031B00098061E62A0061E66A8061E6AB0061E6E4F
:1031C000B8061E72C0061E76C8061E7AD0061E7E7F
:1031D000D8061E83E0061E87E8061E8BF0061E8FAB
:1031E000F8061E9300071E9708071E9B10071E9FD8
:1031F00018071EA320071EA728071EAC30071EB005
:1032000038071EB440071EB848071EBC50071EC032
:1032100058071EC460071EC868071ECC70071ED062
:1032200078071ED480071ED988071EDD90071EE18F
:1032300098071EE5A0071EE9A8071EEDB0071EF1BE
:10324000B8071EF5C0071EF9C8071C04FD0300D40B
:10325000071E04DC071E08E4071E0CEC071E10F412
:10326000071E14FC071E1804081E1C0C081E201440
:10327000081E241C081E2824081E2D2C081E31346C
:10328000081E353C081E3944081E3D4C081E41549A
:10329000081E455C081E4964081E4D6C081E5174CA
:1032A000081E567C081E5A84081E5E8C081E6294F6
:1032B000081E669C081E6AA4081E6EAC081E72B426
:1032C000081E76BC081E7AC4081E7ECC081E83D455
:1032D000081E87DC081E8BE4081E8FEC081E93F482
:1032E000081E97FC081E9B04091E9F0C091EA314B0
:1032F000091EA71C091EAC24091EB02C091EB434DB
:10330000091EB83C091EBC44091EC04C091EC45409
:10331000091EC85C091ECC64091ED06C091ED47439
:10332000091ED97C091EDD84091EE18C091EE59465
:10333000091EE99C091EEDA4091EF1AC091EF5B495
:10334000091EF9BC091C04FD0400C8091E04D009AB
:103350001E08D8091E0CE0091E10E8091E14F00909
:103360001E18F8091E1C000A1E20080A1E24100A36
:103370001E28180A1E2D200A1E31280A1E35300A62
:103380001E39380A1E3D400A1E41480A1E45500A91
:103390001E49580A1E4D600A1E51680A1E56700AC0
:1033A0001E5A780A1E5E800A1E62880A1E66900AED
:1033B0001E6A980A1E6EA00A1E72A80A1E76B00A1D
:1033C0001E7AB80A1E7EC00A1E83C80A1E87D00A4B
:1033D0001E8BD80A1E8FE00A1E93E80A1E97F00A79
:1033E0001E9BF80A1E9F000B1EA3080B1EA7100BA6
:1033F0001EAC180B1EB0200B1EB4280B1EB8300BD1
:103400001EBC380B1EC0400B1EC4480B1EC8500B00
:103410001ECC580B1ED0600B1ED4680B1ED9700B2F
:103420001EDD780B1EE1800B1EE5880B1EE9900B5C
:103430001EED980B1EF1A00B1EF5A80B1EF9B00B8C
:103440001C04FD0500BC0B1E04C40B1E08CC0B1E87
:103450000CD40B1E10DC0B1E14E40B1E18EC0B1E00
:103460001CF40B1E20FC0B1E24040C1E280C0C1E2E
:103470002D140C1E311C0C1E35240C1E392C0C1E58
:103480003D340C1E413C0C1E45440C1E494C0C1E88
:103490004D540C1E515C0C1E56640C1E5A6C0C1EB6
:1034A0005E740C1E627C0C1E66840C1E6A8C0C1EE4
:1034B0006E940C1E729C0C1E76A40C1E7AAC0C1E14
:1034C0007EB40C1E83BC0C1E87C40C1E8BCC0C1E41
:1034D0008FD40C1E93DC0C1E97E40C1E9BEC0C1E70
:1034E0009FF40C1EA3FC0C1EA7040D1EAC0C0D1E9D
:1034F000B0140D1EB41C0D1EB8240D1EBC2C0D1EC8
:10350000C0340D1EC43C0D1EC8440D1ECC4C0D1EF7
:10351000D0540D1ED45C0D1ED9640D1EDD6C0D1E25
:10352000E1740D1EE57C0D1EE9840D1EED8C0D1E53
:10353000F1940D1EF59C0D1EF9A40D1C04FD060052
:10354000B00D1E04B80D1E08C00D1E0CC80D1E10B7
:10355000D00D1E14D80D1E18E00D1E1CE80D1E20E7
:10356000F00D1E24F80D1E28000E1E2D080E1E3113
:10357000100E1E35180E1E39200E1E3D280E1E413F
:10358000300E1E45380E1E49400E1E4D480E1E516F
:10359000500E1E56580E1E5A600E1E5E680E1E629B
:1035A000700E1E66780E1E6A800E1E6E880E1E72CB
:1035B000900E1E76980E1E7AA00E1E7EA80E1E83FA
:1035C000B00E1E87B80E1E8BC00E1E8FC80E1E9327
:1035D000D00E1E97D80E1E9BE00E1E9FE80E1EA357
:1035E000F00E1EA7F80E1EAC000F1EB0080F1EB482
:1035F000100F1EB8180F1EBC200F1EC0280F1EC4AF
:10360000300F1EC8380F1ECC400F1ED0480F1ED4DE
:10361000500F1ED9580F1EDD600F1EE1680F1EE50A
:10362000700F1EE9780F1EED800F1EF1880F1EF53A
:10363000900F1EF9980F0FBCFD075C1001FF0201EF
:10364000FF0201FF0201FF0201FF0201FF0201FF71
:10365000029D6E171E01A20F5310000100040024EA
:04366000F400000072
:040000050800018965
:00000001FF
